{
  "contractName": "ticketingSystem",
  "abi": [
    {
      "constant": true,
      "inputs": [],
      "name": "nextArtistIndex",
      "outputs": [
        {
          "name": "",
          "type": "uint256"
        }
      ],
      "payable": false,
      "stateMutability": "view",
      "type": "function"
    },
    {
      "constant": true,
      "inputs": [
        {
          "name": "",
          "type": "uint256"
        }
      ],
      "name": "_artists",
      "outputs": [
        {
          "name": "owner",
          "type": "address"
        },
        {
          "name": "name",
          "type": "string"
        },
        {
          "name": "artistCategory",
          "type": "uint256"
        },
        {
          "name": "hasBeenModified",
          "type": "bool"
        }
      ],
      "payable": false,
      "stateMutability": "view",
      "type": "function"
    },
    {
      "anonymous": false,
      "inputs": [
        {
          "indexed": false,
          "name": "objectNumber",
          "type": "uint256"
        }
      ],
      "name": "createdAnArtist",
      "type": "event"
    },
    {
      "constant": false,
      "inputs": [
        {
          "name": "index",
          "type": "uint256"
        }
      ],
      "name": "artistsRegister",
      "outputs": [
        {
          "name": "",
          "type": "address"
        },
        {
          "name": "",
          "type": "string"
        },
        {
          "name": "",
          "type": "uint256"
        },
        {
          "name": "",
          "type": "bool"
        }
      ],
      "payable": false,
      "stateMutability": "nonpayable",
      "type": "function"
    }
  ],
  "bytecode": "0x608060405234801561001057600080fd5b506104d6806100206000396000f3fe608060405260043610610057576000357c0100000000000000000000000000000000000000000000000000000000900463ffffffff1680630a60d8661461005c578063856b89581461008757806397af293014610180575b600080fd5b34801561006857600080fd5b50610071610279565b6040518082815260200191505060405180910390f35b34801561009357600080fd5b506100c0600480360360208110156100aa57600080fd5b810190808035906020019092919050505061027f565b604051808573ffffffffffffffffffffffffffffffffffffffff1673ffffffffffffffffffffffffffffffffffffffff1681526020018060200184815260200183151515158152602001828103825285818151815260200191508051906020019080838360005b83811015610142578082015181840152602081019050610127565b50505050905090810190601f16801561016f5780820380516001836020036101000a031916815260200191505b509550505050505060405180910390f35b34801561018c57600080fd5b506101b9600480360360208110156101a357600080fd5b8101908080359060200190929190505050610374565b604051808573ffffffffffffffffffffffffffffffffffffffff1673ffffffffffffffffffffffffffffffffffffffff1681526020018060200184815260200183151515158152602001828103825285818151815260200191508051906020019080838360005b8381101561023b578082015181840152602081019050610220565b50505050905090810190601f1680156102685780820380516001836020036101000a031916815260200191505b509550505050505060405180910390f35b60015481565b60006020528060005260406000206000915090508060000160009054906101000a900473ffffffffffffffffffffffffffffffffffffffff1690806001018054600181600116156101000203166002900480601f0160208091040260200160405190810160405280929190818152602001828054600181600116156101000203166002900480156103515780601f1061032657610100808354040283529160200191610351565b820191906000526020600020905b81548152906001019060200180831161033457829003601f168201915b5050505050908060020154908060030160009054906101000a900460ff16905084565b6000606060008060008086815260200190815260200160002060000160009054906101000a900473ffffffffffffffffffffffffffffffffffffffff166000808781526020019081526020016000206001016000808881526020019081526020016000206002015460008089815260200190815260200160002060030160009054906101000a900460ff16828054600181600116156101000203166002900480601f0160208091040260200160405190810160405280929190818152602001828054600181600116156101000203166002900480156104945780601f1061046957610100808354040283529160200191610494565b820191906000526020600020905b81548152906001019060200180831161047757829003601f168201915b505050505092509350935093509350919350919356fea165627a7a72305820ba55328ae0558612d8a79f6f99588781480208adbf126683bb5c98225b5baf980029",
  "source": "pragma solidity >=0.4.22 <0.6.0;\r\n\r\n\r\nimport \"./openzeppelin_data/Address.sol\";\r\nimport \"./openzeppelin_data/Counters.sol\";\r\n\r\ncontract ticketingSystem{\r\n\tusing Address for address;\r\n    using Counters for Counters.Counter;\r\n\t\r\n\t\r\n\tstruct artist{\r\n\taddress owner;\r\n\tstring name;\r\n\tuint artistCategory;\r\n\tbool hasBeenModified;\r\n\t}\r\n\t\r\n\tmapping(uint => artist) public _artists;\r\n\tuint public nextArtistIndex;\r\n\t\r\n\tevent createdAnArtist(uint objectNumber);\r\n\t\r\n\tfunction createArtist(string memory _name, uint _cat) internal {\r\n\t\t\r\n\t\tnextArtistIndex=1;\r\n\t\t_artists[nextArtistIndex].owner=msg.sender;\r\n\t\t_artists[nextArtistIndex].name=_name;\r\n\t\t_artists[nextArtistIndex].artistCategory=_cat;\r\n\t    _artists[nextArtistIndex].hasBeenModified=false;\r\n\t\tnextArtistIndex = nextArtistIndex + 1;\r\n\t\t\r\n\t\temit createdAnArtist(nextArtistIndex);\r\n\t}\r\n\t\r\n\tfunction artistsRegister(uint index) public returns(address, string memory,uint, bool)\r\n\t{\r\n\t\treturn (_artists[index].owner, _artists[index].name, _artists[index].artistCategory, _artists[index].hasBeenModified);\r\n\t}\r\n\t\r\n\t\r\n\t/*function modifyArtist(uint index, string memory _name) public {\r\n\trequire(_artists[index].owner==msg.sender);\r\n\t\r\n\t\r\n\t}*/\r\n\t//test test/test_name.js\r\n}",
  "sourcePath": "C:/Users/jbgue/Documents/ESILV/4A/Blockchain/TD7/contracts/ticketingSystem.sol",
  "compiler": {
    "name": "solc",
    "version": "0.5.0+commit.1d4f565a.Emscripten.clang"
  },
  "schemaVersion": "3.0.5",
  "updatedAt": "2019-03-22T14:12:49.232Z",
  "devdoc": {
    "methods": {}
  },
  "userdoc": {
    "methods": {}
  }
}